:100000000C9474000C9493000C9493000C947E0157
:100010000C9493000C9493000C9493000C94930014
:100020000C9493000C9493000C9493000C94930004
:100030000C94AD010C9493000C9493000C949300D9
:100040000C9493000C9493000C9493000C949300E4
:100050000C9493000C9493000C9493000C949300D4
:100060000C9493000C94FF010C9493000C94930057
:100070000C9493000C9493000C9493000C949300B4
:100080000C9493000C9493000C9493000C949300A4
:100090000C9493000C9493000C9493000C94930094
:1000A0000C9493000C9493000C9493000C94930084
:1000B0000C9493000C9493000C9493000C94930074
:1000C0000C9493000C9493000C9493000C94930064
:1000D0000C9493000C9493000C9493000C94930054
:1000E0000C9493000C94930011241FBECFEFCDBF4E
:1000F000DFE7DEBF10E4A0E0B0E4E2E6F9E000E014
:100100000BBF02C007900D92A030B107D9F720E4D1
:10011000A0E0B0E401C01D92A434B207E1F70E9450
:10012000DF010C94AF040C9400009B0121503109B5
:100130001216130684F4FC01E60FF71FDC0180E0C1
:1001400090E04C9152915D9340830196215031098A
:1001500082179307B4F308958F929F92AF92BF9244
:10016000CF92DF92EF92FF920F931F93CF93DF9383
:100170007A0169016115710581059105E9F08A012E
:10018000C0E0D0E00F2EFAE08F2E912CA12CB12CE4
:10019000F02D2196A50194010E946E04605DF80186
:1001A00061938F01622F732F842F952F6115710535
:1001B0008105910571F702C0C0E0D0E0CC15DD05E6
:1001C0005CF4CE0DDF1D97012C0D3D1D80E389935E
:1001D000C217D307E1F701C06E01B601C7010E9443
:1001E0009500F701EC0DFD1D1082C601DF91CF9146
:1001F0001F910F91FF90EF90DF90CF90BF90AF9045
:100200009F908F900895E0E4F4E020812D7F20837B
:10021000208121602083BC0180E090E00E94730374
:1002200020E030E040E851E40E9401049B01AC0171
:1002300060E074E284E79DE40E94D20220E030E0B6
:1002400040E05FE30E9466020E944403E0E2F8E0BF
:10025000608771878681806C86830895E0E2F8E08C
:10026000948195FFFDCF809322080895EF92FF922D
:100270000F931F93CF93DF938C017C01C0E0D0E0FC
:1002800006C0F70181917F010E942E012196F8019D
:1002900001900020E9F73197E01BF10BCE17DF0743
:1002A00080F38AE00E942E01DF91CF911F910F9180
:1002B000FF90EF90089520E030E04CE050E40E9481
:1002C000AC008CE090E40E943601089585E88093AC
:1002D000A000E0E0F6E081E08283808308958093CF
:1002E0000A40E0E0F6E0808781E08287858580FF34
:1002F000FDCF809110069091110608951F920F92E4
:100300000FB60F9211240BB60F928F93EF93FF93BA
:10031000E3E4F1E0808181608083FF91EF918F9130
:100320000F900BBE0F900FBE0F901F9018957894F2
:100330008FE99FE080930C0B90930D0BE1E0FBE0C5
:1003400080818083E5E0FBE0808181608083E0E064
:10035000FBE080818160808308951F920F920FB629
:100360000F9211240BB60F928F939F93AF93BF936D
:10037000EF93FF938091404090914140A091424083
:10038000B09143400196A11DB11D809340409093D0
:100390004140A0934240B0934340E6E0FBE08081BF
:1003A00081608083FF91EF91BF91AF919F918F9179
:1003B0000F900BBE0F900FBE0F901F901895789462
:1003C00080E895E20E940301E0E0F6E08FE090E033
:1003D000848B958B84858260848782E0848381E02E
:1003E00080930A400E9466010E94970180910A4012
:1003F0000E946F0180933E4090933F40F7CF1F9241
:100400000F920FB60F9211240BB60F922F933F93BA
:100410004F935F936F937F938F939F93AF93BF930C
:10042000EF93FF938091404090914140A0914240D2
:10043000B09143408093044090930540A0930640C0
:10044000B0930740409100405091014060910240BC
:1004500070910340841B950BA60BB70BC397A105A6
:10046000B10580F060910840709109406F5F7F4F47
:100470006093084070930940072E000C880B990B7D
:100480000E945B018091404090914140A091424088
:10049000B09143408093004090930140A09302406C
:1004A000B0930340FF91EF91BF91AF919F918F91D6
:1004B0007F916F915F914F913F912F910F900BBE64
:1004C0000F900FBE0F901F9018955058BB27AA276A
:1004D0000E947D020C94C7030E94B90338F00E9469
:1004E000C00320F039F49F3F19F426F40C94B603AE
:1004F0000EF4E095E7FB0C94B003E92F0E94D803BB
:1005000058F3BA17620773078407950720F079F448
:10051000A6F50C94FA030EF4E0950B2EBA2FA02D3D
:100520000B01B90190010C01CA01A0011124FF27A0
:10053000591B99F0593F50F4503E68F11A16F0409B
:10054000A22F232F342F4427585FF3CF469537959A
:100550002795A795F0405395C9F77EF41F16BA0B5F
:10056000620B730B840BBAF09150A1F0FF0FBB1F0D
:10057000661F771F881FC2F70EC0BA0F621F731F56
:10058000841F48F4879577956795B795F7959E3FB3
:1005900008F0B0CF9395880F08F09927EE0F979544
:1005A000879508950E94E6020C94C7030E94C00339
:1005B00058F00E94B90340F029F45F3F29F00C94F1
:1005C000B00351110C94FB030C94B6030E94D803A2
:1005D00068F39923B1F3552391F3951B550BBB2772
:1005E000AA2762177307840738F09F5F5F4F220FB7
:1005F000331F441FAA1FA9F335D00E2E3AF0E0E8AE
:1006000032D091505040E695001CCAF72BD0FE2FF7
:1006100029D0660F771F881FBB1F2617370748078B
:10062000AB07B0E809F0BB0B802DBF01FF27935843
:100630005F4F3AF09E3F510578F00C94B0030C9454
:10064000FB035F3FE4F3983ED4F386957795679577
:10065000B795F7959F5FC9F7880F911D9695879578
:1006600097F90895E1E0660F771F881FBB1F621797
:1006700073078407BA0720F0621B730B840BBA0B55
:10068000EE1F88F7E09508950E94E00388F09F57D9
:1006900098F0B92F9927B751B0F0E1F0660F771FA6
:1006A000881F991F1AF0BA95C9F714C0B13091F09C
:1006B0000E94FA03B1E008950C94FA03672F782F93
:1006C0008827B85F39F0B93FCCF386957795679561
:1006D000B395D9F73EF490958095709561957F4FCD
:1006E0008F4F9F4F0895E89409C097FB3EF4909573
:1006F0008095709561957F4F8F4F9F4F9923A9F0FB
:10070000F92F96E9BB279395F69587957795679589
:10071000B795F111F8CFFAF4BB0F11F460FF1BC0CD
:100720006F5F7F4F8F4F9F4F16C0882311F096E960
:1007300011C0772321F09EE8872F762F05C066230E
:1007400071F096E8862F70E060E02AF09A95660FC7
:10075000771F881FDAF7880F9695879597F9089580
:1007600097F99F6780E870E060E008959FEF80EC64
:10077000089500240A941616170618060906089507
:1007800000240A9412161306140605060895092E6D
:100790000394000C11F4882352F0BB0F40F4BF2BDC
:1007A00011F460FF04C06F5F7F4F8F4F9F4F08951C
:1007B00057FD9058440F551F59F05F3F71F0479512
:1007C000880F97FB991F61F09F3F79F087950895F7
:1007D000121613061406551FF2CF4695F1DF08C016
:1007E000161617061806991FF1CF86957105610533
:1007F00008940895E894BB2766277727CB0197F9DB
:1008000008950E9414040C94C7030E94B90338F0A1
:100810000E94C00320F0952311F00C94B0030C94B7
:10082000B60311240C94FB030E94D80370F3959F28
:10083000C1F3950F50E0551F629FF001729FBB27D7
:10084000F00DB11D639FAA27F00DB11DAA1F649F73
:100850006627B00DA11D661F829F2227B00DA11D26
:10086000621F739FB00DA11D621F839FA00D611DAC
:10087000221F749F3327A00D611D231F849F600DCD
:10088000211D822F762F6A2F11249F5750409AF0F6
:10089000F1F088234AF0EE0FFF1FBB1F661F771F82
:1008A000881F91505040A9F79E3F510580F00C944D
:1008B000B0030C94FB035F3FE4F3983ED4F38695BA
:1008C00077956795B795F795E7959F5FC1F7FE2BED
:1008D000880F911D9695879597F90895052E97FB9A
:1008E0001EF400940E94850457FD07D00E948D04D9
:1008F00007FC03D04EF40C94850450954095309538
:1009000021953F4F4F4F5F4F08959095809570957B
:1009100061957F4F8F4F9F4F0895A1E21A2EAA1B1A
:10092000BB1BFD010DC0AA1FBB1FEE1FFF1FA2179F
:10093000B307E407F50720F0A21BB30BE40BF50B9C
:10094000661F771F881F991F1A9469F76095709525
:10095000809590959B01AC01BD01CF010895F8945D
:02096000FFCFC7
:00000001FF
