:100000000C94B5000C94D4000C94D4000C94D4003F
:100010000C94D4000C94D4000C94D4000C94D40010
:100020000C94D4000C94D4000C94D4000C94D40000
:100030000C94D4000C94D4000C94D4000C94D400F0
:100040000C94D4000C94D4000C94D4000C94D400E0
:100050000C94D4000C94D4000C94D4000C94D400D0
:100060000C94D4000C94D4000C94D4000C94D400C0
:100070000C94D4000C94D4000C94D4000C94D400B0
:100080000C94D4000C94D4000C94D4000C94D400A0
:100090000C94D4000C94D4000C94D4000C94D40090
:1000A0000C94D4000C94D4000C94D4000C94D40080
:1000B0000C94D4000C94D4000C94D4000C94D40070
:1000C0000C94D4000C94D4000C94D4000C94D40060
:1000D0000C94D4000C94D4000C94D4000C94D40050
:1000E0000C94D4000C94D40007634236B79BD8A775
:1000F0001A39685618AEBAAB558C1D3CB7CC57634D
:10010000BD6DEDFD753EF6177231BF000000803FFA
:1001100008000000BE922449123EABAAAA2ABECD16
:10012000CCCC4C3E00000080BEABAAAAAA3E000088
:100130000000BF000000803F000000000008417880
:10014000D3BB4387D1133D190E3CC3BD4282AD2BB7
:100150003E68EC8276BED98FE1A93E4C80EFFFBEAF
:1001600001C4FF7F3F000000000011241FBECFEF3D
:10017000CDBFDFE7DEBF10E4A0E0B0E4E4E9FCE0DF
:1001800000E00BBF02C007900D92A231B107D9F772
:1001900020E4A2E1B0E401C01D92A534B207E1F76A
:1001A0000E942C020C9448060C9400009B012150E4
:1001B00031091216130684F4FC01E60FF71FDC0167
:1001C00080E090E04C9152915D93408301962150E4
:1001D000310982179307B4F308958F929F92AF92DB
:1001E000BF92CF92DF92EF92FF920F931F93CF9324
:1001F000DF937A0169016115710581059105E9F0C7
:100200008A01C0E0D0E00F2EFAE08F2E912CA12CB5
:10021000B12CF02D2196A50194010E942906605D64
:10022000F80161938F01622F732F842F952F611531
:1002300071058105910571F702C0C0E0D0E0CC15D1
:10024000DD055CF4CE0DDF1D97012C0D3D1D80E317
:100250008993C217D307E1F701C06E01B601C70148
:100260000E94D600F701EC0DFD1D1082C601DF9142
:10027000CF911F910F91FF90EF90DF90CF90BF90A3
:10028000AF909F908F9008952F923F924F925F92E0
:100290006F927F928F929F92AF92BF92CF92DF9296
:1002A000EF92FF920F931F93CF93DF934B015C016B
:1002B0008A01E9010E9451036B017C01072E000CA9
:1002C000880B990B20E030E0A8010E94ED001C0192
:1002D0002097A9F1F801E80FF91F8EE28083BE0193
:1002E0000D2E000C880B990B0E9489039B01AC0119
:1002F00060E070E080E291E40E9482042B013C0106
:10030000B601DD0C880B990B0E9489039B01AC019F
:10031000C501B4010E9472022FEF221A320A020DA7
:10032000131DA30192010E9415040E945103072E80
:10033000000C880B990B9E01A8010E94ED00DF9133
:10034000CF911F910F91FF90EF90DF90CF90BF90D2
:10035000AF909F908F907F906F905F904F903F9065
:100360002F900895E0E4F4E020812D7F2083208108
:1003700021602083BC0180E090E00E94870320E0A0
:1003800030E040E851E40E9415049B01AC0160E0BC
:1003900074E284E79DE40E94DF0220E030E040E068
:1003A0005FE30E9473020E945803E0E2F8E0608776
:1003B00071878681806C86830895E0E2F8E09481FD
:1003C00095FFFDCF809322080895EF92FF920F933F
:1003D0001F93CF93DF938C017C01C0E0D0E006C077
:1003E000F70181917F010E94DD012196F8010190C2
:1003F0000020E9F73197E01BF10BCE17DF0780F300
:100400008AE00E94DD01DF91CF911F910F91FF9053
:10041000EF9008959A0143E150E40E94440183E182
:1004200090E40E94E501089585E88093A000E0E053
:10043000F6E081E082838083089580931240E0E0BB
:10044000F6E0808781E08287858580FFFDCF8091FF
:10045000100690911106089580E895E20E94B2017D
:100460000E9414020F2EF4E68F2E912CA12CB12C99
:10047000F02DC4E6D0E0C12CD12C760181E00E94A1
:100480001D02C80ED91EE11CF11C8FE097E20197F6
:10049000F1F700C00000219789F780E090E40E9406
:1004A000E501C701B601A50194010E940706CA0132
:1004B000B9010E94870323E333E343E550E40E943C
:1004C000150420E030E04AE754E40E94150420E0DF
:1004D00030EF4FE755E40E94DF0242E050E00E9417
:1004E0000A02C7CF5058BB27AA270E948A020C9441
:1004F000DB030E94CD0338F00E94D40320F039F4CE
:100500009F3F19F426F40C94CA030EF4E095E7FB20
:100510000C94C403E92F0E94EC0358F3BA17620746
:1005200073078407950720F079F4A6F50C940E0460
:100530000EF4E0950B2EBA2FA02D0B01B9019001FE
:100540000C01CA01A0011124FF27591B99F0593F42
:1005500050F4503E68F11A16F040A22F232F342F8A
:100560004427585FF3CF469537952795A795F040D8
:100570005395C9F77EF41F16BA0B620B730B840BED
:10058000BAF09150A1F0FF0FBB1F661F771F881FA5
:10059000C2F70EC0BA0F621F731F841F48F48795FD
:1005A00077956795B795F7959E3F08F0B0CF9395EF
:1005B000880F08F09927EE0F9795879508950E9468
:1005C000F3020C94DB030E94D40358F00E94CD0385
:1005D00040F029F45F3F29F00C94C40351110C94AE
:1005E0000F040C94CA030E94EC0368F39923B1F33F
:1005F000552391F3951B550BBB27AA276217730749
:10060000840738F09F5F5F4F220F331F441FAA1FDC
:10061000A9F335D00E2E3AF0E0E832D09150504098
:10062000E695001CCAF72BD0FE2F29D0660F771F46
:10063000881FBB1F261737074807AB07B0E809F02C
:10064000BB0B802DBF01FF2793585F4F3AF09E3FB1
:10065000510578F00C94C4030C940F045F3FE4F34D
:10066000983ED4F3869577956795B795F7959F5FF4
:10067000C9F7880F911D9695879597F90895E1E040
:10068000660F771F881FBB1F621773078407BA079F
:1006900020F0621B730B840BBA0BEE1F88F7E095FA
:1006A00008950E9458036894B1110C940F040895A2
:1006B0000E94F40388F09F5798F0B92F9927B751FB
:1006C000B0F0E1F0660F771F881F991F1AF0BA95F6
:1006D000C9F714C0B13091F00E940E04B1E0089542
:1006E0000C940E04672F782F8827B85F39F0B93F34
:1006F000CCF3869577956795B395D9F73EF49095A9
:100700008095709561957F4F8F4F9F4F0895E89426
:1007100009C097FB3EF490958095709561957F4F49
:100720008F4F9F4F9923A9F0F92F96E9BB279395F7
:10073000F695879577956795B795F111F8CFFAF407
:10074000BB0F11F460FF1BC06F5F7F4F8F4F9F4F38
:1007500016C0882311F096E911C0772321F09EE896
:10076000872F762F05C0662371F096E8862F70E0FC
:1007700060E02AF09A95660F771F881FDAF7880FD6
:100780009695879597F9089597F99F6780E870E0A7
:1007900060E008959FEF80EC089500240A941616F7
:1007A000170618060906089500240A94121613065F
:1007B000140605060895092E0394000C11F48823ED
:1007C00052F0BB0F40F4BF2B11F460FF04C06F5F09
:1007D0007F4F8F4F9F4F089557FD9058440F551FDF
:1007E00059F05F3F71F04795880F97FB991F61F0B3
:1007F0009F3F79F087950895121613061406551F2A
:10080000F2CF4695F1DF08C0161617061806991F95
:10081000F1CF86957105610508940895E894BB278A
:1008200066277727CB0197F908950E9428040C9436
:10083000DB030E94CD0338F00E94D40320F09523FF
:1008400011F00C94C4030C94CA0311240C940F04EB
:100850000E94EC0370F3959FC1F3950F50E0551F74
:10086000629FF001729FBB27F00DB11D639FAA2705
:10087000F00DB11DAA1F649F6627B00DA11D661F54
:10088000829F2227B00DA11D621F739FB00DA11D75
:10089000621F839FA00D611D221F749F3327A00D2F
:1008A000611D231F849F600D211D822F762F6A2FCB
:1008B00011249F5750409AF0F1F088234AF0EE0F30
:1008C000FF1FBB1F661F771F881F91505040A9F75D
:1008D0009E3F510580F00C94C4030C940F045F3FBD
:1008E000E4F3983ED4F3869577956795B795F79599
:1008F000E7959F5FC1F7FE2B880F911D9695879511
:1009000097F90895FA01EE0FFF1F30962105310582
:10091000A1F16115710561F48038BFE39B0749F1CE
:1009200068949038810561F08038BFEF9B0741F0F3
:1009300099234AF5FF3FE1053105210519F1E894B6
:100940000894E795D901AA2329F4AB2FBE2FF85FAD
:10095000D0F310C0FF5F70F4A695E0F7F73950F0C0
:1009600019F0FF3A38F49F779F930DD00F9007FC52
:100970009058089546F00C94CA0360E070E080E857
:100980009FE308954FE79F775F934F933F932F9394
:100990000E947D052F913F914F915F910E94150418
:1009A0000C94DA0429F416F00C94C4030C940E048D
:1009B0000C94CA030E94F403A8F39638A0F707F832
:1009C0000F92E8942BE33AEA48EB5FE70E942B048E
:1009D0000F920F920F924DB75EB70F920E94C5050E
:1009E000E8EEF0E00E940C054F915F91EF91FF91CE
:1009F000E595EE1FFF1F49F0FE57E0684427EE0F14
:100A0000441FFA95E1F74195550B0E943F050F9061
:100A100007FE0C9433050895DF93CF931F930F9334
:100A2000FF92EF92DF927B018C01689406C0DA2E70
:100A3000EF010E942804FE01E894A59125913591CB
:100A400045915591A6F3EF010E948A02FE0197019C
:100A5000A801DA9469F7DF90EF90FF900F911F9152
:100A6000CF91DF9108959B01AC0160E070E080E8D8
:100A70009FE30C94DF020C94C4030C94F9050E94CC
:100A8000F403D8F39923C9F3940F511DA3F39150A4
:100A9000504094F059F0882332F0660F771F881F7A
:100AA00091505040C1F79E3F51052CF7880F911D82
:100AB0009695879597F908955F3FACF0983E9CF026
:100AC000BB27869577956795B79508F4B1609395A0
:100AD000C1F7BB0F58F711F460FFE8CF6F5F7F4F8E
:100AE0008F4F9F4FE3CF0C940F0416F00C94F90531
:100AF0000C94CA0368940C94C4030E94F403A8F3F2
:100B00009923C1F3AEF3DF93CF931F930F93FF921B
:100B1000C92FDD2788232AF02197660F771F881FAA
:100B2000DAF720E030E040E85FEB9FE3883920F01F
:100B3000803E38F021968F770E947302E0E1F1E069
:100B400004C00E947302EDE3F1E00E940C058B01EA
:100B5000BE01EC01FB2E6F5771097595771F880B4D
:100B6000990B0E94890328E132E741E35FE30E9489
:100B70002804AF2D9801AE01FF900F911F91CF91E6
:100B8000DF910E948A020C94DB03FA01DC01AA0FB8
:100B9000BB1F9B01AC01BF5728F4222733274427F2
:100BA000507820C0B75190F4AB2F0024469537956C
:100BB0002795011CA395D2F3002071F0220F331F5B
:100BC000441FB395DAF30ED00C94720261307105B4
:100BD000A0E88A07B94630F49B01AC016627772765
:100BE00088279078309621F0208331834283538385
:100BF00008959F3F31F0915020F487957795679540
:100C0000B795880F911D9695879597F90895A1E25C
:100C10001A2EAA1BBB1BFD010DC0AA1FBB1FEE1F76
:100C2000FF1FA217B307E407F50720F0A21BB30BC1
:100C3000E40BF50B661F771F881F991F1A9469F73D
:100C400060957095809590959B01AC01BD01CF0199
:100C50000895052E97FB1EF400940E94400657FD50
:100C600007D00E94070607FC03D04EF40C94400600
:100C700050954095309521953F4F4F4F5F4F0895C8
:100C800090958095709561957F4F8F4F9F4F0895F8
:040C9000F894FFCF06
:100C94004261747465727920566F6C746167653A49
:020CA40000004E
:00000001FF
